:020000040800F2
:10000000C80700209101000831220008C11A000829
:100010002D220008F1040008292300080000000038
:100020000000000000000000000000001D23000888
:10003000F504000800000000352200082123000814
:10004000AB010008AB010008AB010008AB010008E0
:10005000AB010008AB010008AB010008F90400087F
:10006000AB010008AB010008AB010008AB010008C0
:10007000AB010008AB010008AB010008AB010008B0
:10008000AB010008AB010008AB010008AB010008A0
:10009000AB010008AB010008AB010008AB01000890
:1000A000AB010008AB010008AB010008AB01000880
:1000B000AB010008AB010008AB010008AB01000870
:1000C000AB010008AB010008AB010008AB01000860
:1000D000AB010008AB010008AB010008AB01000850
:1000E000AB010008AB010008AB01000800F002F80A
:1000F00000F03FF80AA090E8000C82448344AAF183
:100100000107DA4501D100F034F8AFF2090EBAE880
:100110000F0013F0010F18BFFB1A43F0010318473B
:100120000024000020240000103A24BF78C878C1C1
:10013000FAD8520724BF30C830C144BF04680C60ED
:10014000704700000023002400250026103A28BF35
:1001500078C1FBD8520728BF30C148BF0B60704739
:10016000642900F08980002070471FB51FBD10B5BD
:1001700010BD00F083F91146FFF7F7FF02F0D6F843
:1001800000F0A1F903B4FFF7F2FF03BC00F0A8F9F7
:100190000948804709480047FEE7FEE7FEE7FEE71B
:1001A000FEE7FEE7FEE7FEE7FEE7FEE70448054957
:1001B000054A064B7047000025230008ED000008A3
:1001C000C8010020C8070020C8030020C803002081
:1001D0000FB41CB50C0007AA009007D04142A14201
:1001E00002D32044401E01E04FF0FF30074B7B4418
:1001F00069460190069800F026F90020002C01D0F5
:10020000009908701CBC5DF814FB00007B02000024
:100210002DE9F0410E460446002020622046E168A8
:10022000884730B3252805D0D4E901219047206ABA
:10023000401CF2E7E168204600278847050018D0F7
:10024000A5F14100192802D820354FF40067324645
:10025000294620462760FFF783FF40B1012804D0DC
:10026000F61D26F007060836D8E7361DD6E72846DD
:10027000DAE7206ABDE8F0812DE9F0410646002466
:1002800010687529314616A510D0AFF300800028FC
:1002900002DA404213A507E031688A0701D512A5AA
:1002A00002E0490704D511A5012401E0AFF3008065
:1002B00000210A2206F1240709E0B0FBF2FCB0FBA2
:1002C000F2F302FB1C00303078541846491C002819
:1002D000F3D123462A463046BDE8F04100F054B839
:1002E000000000002D0000002B0000002000000096
:1002F0004FF000020429C0F0128010F0030C00F04F
:100300001B80CCF1040CBCF1020F18BF00F8012BCC
:10031000A8BF20F8022BA1EB0C0100F00DB85FEA9A
:10032000C17C24BF00F8012B00F8012B48BF00F866
:10033000012B70474FF0000200B5134694469646D5
:10034000203922BFA0E80C50A0E80C50B1F12001E8
:10035000BFF4F7AF090728BFA0E80C5048BF0CC096
:100360005DF804EB890028BF40F8042B08BF7047F4
:1003700048BF20F8022B11F0804F18BF00F8012B66
:1003800070477047704770472DE9F0470D46994612
:100390009246044600F124080168880604D5E06905
:1003A00021F01001216000E00120A84201DD471B7F
:1003B00000E00027A1697A1902EB0900081AA06180
:1003C0002078C00602D42046AFF30080002608E063
:1003D000D4E901211AF806009047206A401C761CD7
:1003E00020624E45F4DB2078C0060AD52046AFF3E4
:1003F000008006E0D4E9012130209047206A401CAB
:100400002062381EA7F10107F4DC07E0D4E90121DE
:1004100018F805009047206A401C2062281EA5F1AC
:100420000105F3DC2046AFF300802078000602D5FA
:100430000220BDE8F0870120FBE7000001694A1CAB
:1004400002610878704700B58FB0CDE90131002115
:10045000059105497944CDE9031011466846FFF737
:10046000D7FE0FB000BD0000E5FFFFFFD1E900237C
:100470009A4202D2531C0B6010707047754600F010
:100480002BF8AE4605006946534620F00700854626
:1004900018B020B5FFF78AFEBDE820404FF00006F7
:1004A0004FF000074FF000084FF0000BAC46ACE8EF
:1004B000C009ACE8C009ACE8C009ACE8C00921F04B
:1004C00007018D46704710B50446AFF30080204603
:1004D000BDE81040FFF756BE0048704710000020EE
:1004E00001491820ABBEFEE726000200704700005D
:1004F000FEE7000070470000022000F02BB800006B
:10050000EFF3108072B600BFFEE70000B0B50446FE
:1005100000F040F9054640F20000C2F20000007809
:10052000611C18BF044400BF00F034F9401BA04216
:10053000FAD3B0BD022818BF704740F27000C2F273
:10054000000040F2A4010830C2F20001802201F054
:10055000ADBC000040F21441C4F201010A6802423D
:1005600014BF08607047FFF7E5BF00002DE9F04FAA
:1005700082B00E68002E00F0038141F20042C4F206
:100580000102042340F2004E904208BF03234FF6BD
:10059000FF7CC4F2010E009300240123C1F2100C71
:1005A0004FF0000A4FF0000949E000BF012704F0B6
:1005B0000C030F229A402BEA020207FA03F34FEAD8
:1005C0009A051A4346F82520D1F804B040F20C45AC
:1005D0005FEACB22DEF8082054BF22EA080242EA92
:1005E0000802C4F20105CEF808202A685FEA8B23CE
:1005F00054BF22EA080242EA08022A605FEA8B330B
:10060000DEF8042054BF22EA080242EA08025FEA48
:10061000CB33CEF80420DEF800204FF0010354BFA6
:1006200022EA080242EA0802CEF800200E680AF127
:10063000010A36FA0AF204F1040400F0A18003FA78
:100640000AF816EA080FF1D04E68664512DC122E41
:1006500056D8DFE806F0350B4549555555555555E3
:10066000555555555555554D510000BFD1F80C9075
:1006700046E000BF4FF6FF72C1F2210296420FDC46
:100680000022C1F2110296421AD00022C1F21202D7
:10069000964215D00022C1F22102964210D02FE0DE
:1006A0000022C1F2220296420AD00022C1F2310297
:1006B000964205D00022C1F23202964220D100BFFC
:1006C0008A684AB1012A14BFC0F81480C0F81080AB
:1006D0004FF0080914E000BF4FF0040910E000BF1C
:1006E000CA6802F108090BE04FF0000908E000BFFA
:1006F000CA6802F1040903E0CA6802F10C0900BFEC
:1007000022460646BAF1080F24BF203A043637685D
:100710000F25954027EA050509FA02F22A433260BF
:10072000CA79D2067FF582AF41F21803C4F2020300
:100730001A68AEF57E7642F001021A601A6802F07D
:1007400001020192019A2AF0030256F802B040F623
:100750000002C4F20102904210D040F60042C4F2FE
:10076000010290423FF422AF41F20002C4F20102C2
:10077000009F904208BF022719E700BF002716E735
:1007800002B0BDE8F08F0000002A08BF0904016133
:100790007047000040F2C410C2F2000000687047C9
:1007A00040F2000040F2C411C2F20000C2F20001A7
:1007B00000780A68104408607047000080B542F273
:1007C0000000C4F20200016841F010010160032042
:1007D00000F08EF80F2000F005F800F027F8002058
:1007E00080BD000070B540F20006C2F2000640F283
:1007F00008013278C2F200014FF47A730968B3FB42
:10080000F2F20446B1FBF2F1084600F057FF0F2C5C
:100810004FF0010508D838B94FF0FF3021460022CB
:10082000002500F039F87460284670BD82B041F2AE
:100830001800C4F202000168022241F001010160C7
:10084000016801F0010101910199416841F0805175
:100850004160406800F08050009000980420C4F28D
:100860000100016862F31A61016002B07047000084
:10087000002848BF7047C1B200F01F00012202FAF1
:1008800000F04EF20012CEF2000242EAD10121F055
:10089000030108607047000010B54EF60C5CCEF204
:1008A000000CDCF80030C3F3022E8EF00704042C99
:1008B00028BF0424BEF103034FF0FF3E0EFA04F4F8
:1008C00038BF0023A14399400EFA03F39A43114322
:1008D00000F00F0200F160430901043A03F564439C
:1008E0006244002848BF02F10C03197010BD0000DB
:1008F0004EF60C51CEF200010A684FF6FF031A4083
:1009000060F30A2242F0806040F0FD70086070479A
:100910002DE9F04381B0002800F0858042F2000804
:10092000C4F202080446D8F800000D4600F00700A3
:1009300088420CD2D8F8000020F007002843C8F8FD
:100940000000D8F8000000F00700A8426BD1206832
:1009500041F204098107C4F2020917D5410705D500
:10096000D9F8001041F4E061C9F80010010705D57D
:10097000D9F8001041F46051C9F80010D9F80010FE
:10098000A26821F0F0011143C9F80010C00741D15D
:10099000D8F8000000F00700A8420CD9D8F80000F1
:1009A00020F007002843C8F80000D8F8000000F045
:1009B0000700A84237D12068410707D5D9F80010B1
:1009C000E26821F4E0611143C9F80010000708D57E
:1009D000D9F80000216920F4605040EAC100C9F84C
:1009E0000000D9F8002002F00C00082841F2002095
:1009F000C0F27A0050D142F20E53C2F38341C0F6E6
:100A00000003595CD2033BD440F60010C0F23D0015
:100A1000484341E0606802280AD001282AD159F8E9
:100A2000041C890308D4012001B0BDE8F08300BF95
:100A300059F8041C8901F6D5D9F8001021F00301FA
:100A40000843C9F80000FFF7A5FE064641F28837C3
:100A5000D9F80000616800F00C00B0EB810F97D06E
:100A6000FFF798FE801BB842F2D9032001B0BDE821
:100A7000F08300BF59F8041C8907D4D5DCE700BF18
:100A8000D9F8002042F20C53C2F34042C0F60003F2
:100A90009A5C4843B0FBF2F0D9F8001042F2F442FD
:100AA000C1F30311C0F60002515C40F2080220FAC3
:100AB00001F140F20400C2F200000068C2F200023C
:100AC0001160FFF78FFE002001B0BDE8F083000049
:100AD00040F2080041F20401C2F20000C4F2020137
:100AE0000068096842F20452C1F30221C0F6000214
:100AF000515CC8407047000040F2080041F2040118
:100B0000C2F20000C4F202010068096842F2045215
:100B1000C1F3C221C0F60002515CC840704700001A
:100B20002DE9F04182B0002868D00446007841F2F7
:100B30000006C007C4F2020625D0706800F00C0061
:100B400004281BD0706800F00C00082802D17068DF
:100B5000C00313D46068002800F06881B0F5A02FAE
:100B600000F07C81B0F5803F00F07C81306820F49B
:100B700080303060306820F4802076E13068800377
:100B800001D56068D0B32078800718D5706810F060
:100B90000C0F07D0706800F00C0008286ED1706848
:100BA000C0036BD43068800702D52069012825D1A5
:100BB0003068616920F0F80040EAC10030602078B8
:100BC00000071FD42078400732D4E56995B17068DA
:100BD00000F00C00082840F08F80012D0ED07068C6
:100BE000216A00F480328A4208D1616A00F47010F0
:100BF000884203D1002002B0BDE8F081012002B09C
:100C0000BDE8F081A069002862D00020C4F2422033
:100C10000121C0F88014FFF7BDFD0546706A80070A
:100C200000F18C80FFF7B6FD401B0228F6D92AE1BF
:100C3000F06910F0805808D1F06940F08050F06100
:100C4000F06900F080500090009847F20007C4F26D
:100C500000073868C00529D4386840F480703860CF
:100C6000FFF798FD054600BF3868C0051ED4FFF7A2
:100C700091FD401B6428F7D905E100BF20690028D9
:100C800040F20000C4F2422000F0828001210160A5
:100C9000FFF780FD054600BF306880073FF588AF4D
:100CA000FFF778FD401B0228F6D9ECE0E068002849
:100CB00000F08080052800F09780012800F09880DF
:100CC000306A20F001003062306A20F0040092E0C7
:100CD0000020C4F242200021C0F88014FFF75AFD22
:100CE000054600BF706A80077FF56CAFFFF752FDC5
:100CF000401B0228F6D9C6E00027C4F24227002094
:100D00003866FFF747FD022D05460BD1306880019C
:100D100040F1BE80FFF73EFD401B02284FF003006C
:100D2000F4D968E7306880017FF564AFFFF732FDE2
:100D3000401B02284FF00300F4D95CE740F20800A2
:100D4000C2F20000006844F6D351C1F26201A0FB78
:100D50000101480A019000BF00BF0198411E002810
:100D600001913FF42FAF00BF0198411E002801916F
:100D70003FF428AF00BF0198411E002801913FF4C5
:100D800021AF00BF0198411E00280191E4D119E76D
:100D900000210160FFF7FEFC054600BF30688007B8
:100DA0007FF50DAFFFF7F6FC401B02284FF0030064
:100DB000F4D920E7306A20F001003062306A20F078
:100DC00004003062FFF7E6FC054641F2883700BFB9
:100DD000306A800720D5FFF7DDFC401BB8424FF09A
:100DE0000300F5D907E700BF306A40F00400306225
:100DF000306A40F001003062FFF7CCFC054641F25A
:100E0000883700BF306A800706D4FFF7C3FC401B59
:100E1000B842F7D937E000BFB8F1000F7FF4D5AE84
:100E2000F06920F08050F061CFE600BF306820F418
:100E300080303060306820F480203060FFF7AAFCFA
:100E4000054600BF306880037FF59DAEFFF7A2FC2A
:100E5000401B64284FF00300F4D9CCE6306840F41E
:100E600080203060306840F480303060FFF792FCC2
:100E7000054600BF306880033FF585AEFFF78AFC6A
:100E8000401B6428F6D9032002B0BDE8F08100BF02
:100E9000206AB0F5803F05D17168A26821F4003165
:100EA000114371607168626A21F47411114308433F
:100EB000706001203866FFF76DFC044630688001E1
:100EC0003FF598AEFFF766FC001B02284FF00300C9
:100ED000F4D990E690F851007047000070B538B131
:100EE0000446406A30B10020206104F1140007E09C
:100EF000012070BD6068B0F5827F03D004F11C0052
:100F0000002101600026A66294F8510020B9204615
:100F100084F8506000F038F8022084F8510094E81A
:100F2000071001F48271036802F4044223F04003C5
:100F30000360236911440CF40062114403F00202BF
:100F40006369114403F00102A369E569114403F4E4
:100F50000072114405F03802256A114405F0800240
:100F6000A56A114305F4005211430160042101EA0E
:100F700013414160C16921F40061C16101206665CE
:100F800084F85100304670BD70B586B040F600045C
:100F9000C4F20104006804F520510026884204963A
:100FA00002D006B070BD00BF41F21800C4F20200CA
:100FB000016802AD41F480510160016801F4805183
:100FC00001910199016841F004010160006829461E
:100FD00000F0040001900198A020029002200390EC
:100FE000032005902046FFF7C1FA4020CDE9020614
:100FF000204629460496FFF7B9FA06B070BD0000F6
:101000002DE9F04381B0044690F85100012811D138
:101010006068994616460D46B0F5827F01D1A068FA
:10102000D0B194F85000012806D10227384601B00B
:10103000BDE8F083022708E0012784F85070FFF72D
:10104000A9FB002D18BF002E14D1002084F85000F9
:10105000384601B0BDE8F083042084F851002046F2
:1010600029462A463346CDF8009000F0BFF901B07A
:10107000BDE8F08380460420002184F851006165BA
:10108000A563A687E6872163A186E186A26820681A
:10109000B2F5004F2164616440D1016821F0400144
:1010A0000160016821F4804101600168490638D57A
:1010B000E168E08F00293CD000286BD019F10100D5
:1010C0000BD11AE0C068A16B21F8020BA163E08F7D
:1010D0000138E087E08F00285CD020688168C9076C
:1010E000F0D1FFF757FBA0EB08004845F2D33AE0F8
:1010F000FFF750FBE08F00284CD020688168C907BB
:10110000F6D0C068A16B21F8020BA163E08F013813
:10111000E087E08F0028F0D13CE000BF016849067D
:10112000C6D4016841F040010160E168E08F002908
:10113000C2D178B319F101000BD11BE0007BA16B88
:101140000870A06B0130A063E08F0138E087E08F6A
:1011500000B320688168C907F0D1FFF71BFBA0EB43
:1011600008004845F3D303273DE000BFFFF712FB1B
:10117000E08F78B120688168C907F7D0007BA16B48
:101180000870A06B0130A063E08F0138E087E08F2A
:101190000028EFD16068B0F5827F11D1A068B0F56A
:1011A000004F02D0B0F5806F0AD12168B0F5806F92
:1011B0000A6822F040020A6002D12046012101E0C3
:1011C000204680214A46434601F036F828B1606D3A
:1011D00040F02000606520206065606D10B101273F
:1011E00033E700BF0027012084F851002DE70000FD
:1011F0002DE9F04182B0044690F85000012803D157
:10120000022002B0BDE8F08101201D4616460F46BF
:1012100084F85000FFF7BEFA94F8511001290DD15F
:101220008046002F4FF0010018BF002E0ED1002184
:1012300084F8501002B0BDE8F08100BF0220002108
:1012400084F8501002B0BDE8F08100BF03200021F7
:1012500084F8510061652763A686E686A163A187AD
:10126000E187A0682164B0F5004F2068616407D170
:10127000016821F040010160016841F48041016092
:101280000168490603D4016841F0400101606168CA
:10129000731EE268B1FA81F1B3FA83F349095B097D
:1012A000B2F5006F41EA03013CD131B137F8021BBE
:1012B000C1602763E08E0138E086E08E00286BD0A5
:1012C000681C0CD11DE000BF216B31F8022BC260FD
:1012D0002163E08E0138E086E08E00285CD0206833
:1012E00081688907F0D4FFF755FAA0EB0800A842FF
:1012F000F2D3032071E000BFFFF74CFAE08E002824
:101300004AD0206881688907F6D5216B31F8022B15
:10131000C2602163E08E0138E086E08E0028F0D1C3
:101320003AE000BF39B139780173206B0130206396
:10133000E08E0138E086E08E70B3681C0BD11BE0B4
:10134000216B09780173206B01302063E08E013836
:10135000E086E08E00B3206881688907F0D4FFF74B
:1013600019FAA0EB0800A842F3D3032035E000BF30
:10137000FFF710FAE08E78B1206881688907F7D509
:10138000216B09780173206B01302063E08E0138F6
:10139000E086E08E0028EFD1204680212A46434691
:1013A00000F04AFF28B1606D40F020006065202009
:1013B0006065A06838B9002001902068C16801917B
:1013C000806801900198606D30B10120002184F89F
:1013D000501002B0BDE8F0810020012184F85110C6
:1013E000002184F8501002B0BDE8F0812DE9F043EF
:1013F00081B0044690F85000012803D1022001B0CA
:10140000BDE8F08301201E4615460F4684F85000C3
:10141000FFF7C0F994F851108146012912D0606895
:10142000B0F5827F40F0A480A06800284FF0020051
:1014300008BF042906D0002184F8501001B0BDE88F
:10144000F08300BF002F4FF0010018BF002DF2D035
:10145000002EF0D094F85100002104281CBF052074
:1014600084F851006165A563E687A6872763E68651
:101470002068A686216461640168490603D4016876
:1014800041F0400101606168731EE268B1FA81F1C8
:10149000B3FA83F3DDF8208049095B09B2F5006FE8
:1014A00041EA03016CD131B137F8021BC1602763F7
:1014B000E08E0138E086012518F1010031D101E00C
:1014C000FFF768F9E08E18B9E08F002800F0C080BF
:1014D0002068816889070CD5E18E51B1012D08D1B2
:1014E000216B002531F8022BC2602163E18E0139A6
:1014F000E1868168C907E3D0E18F0029E0D0C068A8
:10150000A16B012521F8020BA163E08F0138E08770
:10151000D6E700BFFFF73EF9A0EB0900404580F099
:10152000AB80E08E18B9E08F002800F09180206831
:10153000816889070CD5E18E51B1012D08D1216B4D
:10154000002531F8022BC2602163E18E0139E1866A
:101550008168C907DED0E18F0029DBD0C068A16BAC
:10156000012521F8020BA163E08F0138E087D1E764
:101570000220002184F8501001B0BDE8F08300BFC4
:1015800039B139780173206B01302063E08E013866
:10159000E086012518F1010032D101E0FFF7FAF8E9
:1015A000E08E10B9E08F002852D02068816889074A
:1015B0000ED5E18E61B1012D0AD1216B002509788C
:1015C0000173216B206801312163E18E0139E186CD
:1015D0008168C907E2D0E18F0029DFD0C068A16B24
:1015E00001250870A06B0130A063E08F0138E0870F
:1015F000D4E700BFFFF7CEF8A0EB090040453BD28F
:10160000E08E08B9E08F18B32068816889070ED58D
:10161000E18E61B1012D0AD1216B0025097801739A
:10162000216B206801312163E18E0139E1868168F7
:10163000C907DFD0E18F0029DCD0C068A16B01258C
:101640000870A06B0130A063E08F0138E087D1E71C
:101650002046802142464B4600F0EEFDB0B1606D61
:1016600040F020006065202060650120002184F8A2
:10167000501001B0BDE8F083012084F85100032030
:10168000002184F8501001B0BDE8F083A06838B99B
:10169000002000902068C168009180680090009848
:1016A000606D00284FF0010004BF84F85100002055
:1016B000002184F8501001B0BDE8F083411E0020E5
:1016C000B0EB116F1CBF012070474EF21002CEF23A
:1016D000000251604EF62351CEF20001F0230B7050
:1016E0000721906011607047002804BF01207047F7
:1016F00010B5044690F8410028B9002084F8400055
:10170000204600F063F8242084F841002068D4E9E2
:101710000212C36823F40053C360036923F44053E7
:101720001A430261D4E904231143C268194341F208
:101730000C639A431143C1604169A26921F440716D
:10174000114343F60002C4F201029042416103D00A
:10175000FFF7BEF902E000BFFFF7CEF9626819217A
:1017600048439100B0FBF1F048F21F51C5F2EB1174
:10177000A0FB01235A094FF69C73C0F6FF7302FBCE
:101780000300322303EB0010A0FB0101F02303EA66
:101790005113206803EB0212C1F34311114481601D
:1017A000016921F490410161416921F02A014161FF
:1017B000C16841F40051C16000202021606484F8B8
:1017C000411084F84210606310BD000070B586B00F
:1017D00040F60004C4F20104006804F540510026FC
:1017E0008842049602D006B070BD00BF41F21800D6
:1017F000C4F20200016802AD41F480410160016859
:1018000001F4804101910199016841F004010160F6
:101810000068294600F00400019001984FF4007020
:10182000029002200390032005902046FEF79EFEC2
:101830004FF48060CDE90206204629460496FEF763
:1018400095FE06B070BD00002DE9F04381B004465E
:1018500090F84100202840F0B180884600294FF0E0
:10186000010000F0D6801646002A00F0D280002049
:10187000606421201D4684F84100FEF78BFFA6849A
:10188000E684A1680646B1F5805F03D1206900288F
:1018900000F0988047464FF00008E18C206800294E
:1018A00000F0968005F101090BE000BF47B317F87F
:1018B000011B4160E18C0139E184E18C002900F0D9
:1018C000878001680906F1D4B9F1000F0AD0EDB1A3
:1018D000FEF760FF801BA84218D82068016809063F
:1018E000F6D5E3E701680906E0D4016809065CBFA4
:1018F00001685FEA0161D9D401680906F2D5D5E72C
:1019000038F8021B00276FF35F21D2E7206850E808
:10191000030F216820F4D07041E80302BAB32068B5
:1019200050E8030F216820F4D07041E8030272B33D
:10193000206850E8030F216820F4D07041E80302CA
:101940002AB3206850E8030F216820F4D07041E8E2
:101950000302002ADAD11AE0206850E8050F216856
:1019600020F0010041E80502DAB1206850E8050FD7
:10197000216820F0010041E8050292B1206850E89A
:10198000050F216820F0010041E805024AB12068F6
:1019900050E8050F216820F0010041E80502002A07
:1019A000DAD1202084F8410084F84200002084F835
:1019B0004000032001B0BDE8F08300BF022001B069
:1019C000BDE8F0830027E18C206800297FF46AAF2E
:1019D0000168490619D4FDB1691C0DD10168490699
:1019E00013D4016849065CBF01685FEA41610CD409
:1019F00001684906F2D508E0FEF7CCFE801BA8423C
:101A00000AD8206800684006F6D5202084F84100F6
:101A1000002001B0BDE8F083206850E8030F216882
:101A200020F4D07041E80302002A3ED0206850E83C
:101A3000030F216820F4D07041E80302AAB32068A4
:101A400050E8030F216820F4D07041E8030262B32C
:101A5000206850E8030F216820F4D07041E80302A9
:101A6000002AD9D121E000BF206850E8050F216885
:101A700020F0010041E80502002A3FF492AF2068FF
:101A800050E8050F216820F0010041E80502002A16
:101A90003FF487AF206850E8050F216820F001006F
:101AA00041E80502002A3FF47CAF206850E8050FAA
:101AB000216820F0010041E80502002AD4D170E736
:101AC000FEE7000080B582B01A218DF806104FF0B5
:101AD000010C0DF106010DF107030122CDF800C044
:101AE00000F0B8F99DF80700A43802B080BD0000EE
:101AF0002DE9F04383B001250DF10A010DF10B032F
:101B0000012204468DF80A50009500F0A3F99DF8D3
:101B10000B00002700F0F8004FF081088DF80B0053
:101B20000DF10A010DF10B0320460122E7618DF84A
:101B30000A80009500F0A0FA0A20FEF7E7FC0DF1FC
:101B40000A010DF10B03204601228DF80A50009581
:101B500000F080F99DF80B600A20FEF7D7FC46F0F4
:101B600080008DF80B000DF10A010DF10B032046EA
:101B700001228DF80A80009500F07EFA6420FEF7BD
:101B8000C5FC266A8621B0088DF80A108DF80B0076
:101B90000DF10A010DF10B0320460122009500F022
:101BA0006BFA0520FEF7B2FCB00187218DF80A1010
:101BB0008DF80B000DF10A010DF10B0320460122F7
:101BC000009500F059FA0520FEF7A0FC88208DF85A
:101BD0000A000DF10A010DF10B03204601228DF8D8
:101BE0000B70009500F048FA0520FEF78FFC94F882
:101BF0002A0089218DF80A108DF80B000DF10A01D9
:101C00000DF10B0320460122009500F035FA0A2061
:101C1000FEF77CFC94F82B00CD222D2898BF2D20B8
:101C2000F02828BFF020A0F12D01C9B2514300F1E6
:101C30001E024CF6CD435A43D20C792838BF8A0A8B
:101C400002F120008B218DF80A108DF80B000DF1A8
:101C50000A010DF10B0320460122009500F00CFA59
:101C60000A20FEF753FC8C208DF80A0023208DF803
:101C70000B000DF10A010DF10B0320460122009526
:101C800000F0FAF91E260DF10A010DF10B032046B2
:101C900001228DF80A60009500F0DCF89DF80B0039
:101CA0004FF09E0940F007008DF80B000DF10A017E
:101CB0000DF10B03204601228DF80A90009500F0EB
:101CC000DBF90A20FEF722FC94F824700DF10A01DA
:101CD0000C2FA8BF0C270DF10B0320460122072F64
:101CE000D8BF07278DF80A60009500F0B3F89DF87B
:101CF0000B600A20FEF70AFC06F00F0040EA07100E
:101D00008DF80B000DF10A010DF10B0320460122A5
:101D10008DF80A90009500F0AFF90A20FEF7F6FB67
:101D20009F208DF80A00FF208DF80B000DF10A01AD
:101D30000DF10B0320460122009500F09DF994F867
:101D4000260094F82510400000EB01109D218DF82D
:101D50000A108DF80B000DF10A010DF10B0320465E
:101D60000122009500F088F994F82900A0218DF84F
:101D70000A108DF80B000DF10A010DF10B0320463E
:101D80000122009500F078F994F82800A1218DF83F
:101D90000A108DF80B000DF10A010DF10B0320461E
:101DA0000122009500F068F940208DF80A000DF13D
:101DB0000A010DF10B0320460122009500F04AF8BC
:101DC0009DF80B00C02140F03F008DF80A108DF8FF
:101DD0000B000DF10A010DF10B03204601220095C5
:101DE00000F04AF90DF10A010DF10B032046012222
:101DF0008DF80A50009500F02DF89DF80B000DF1BC
:101E00000A0100F0F80001308DF80B000DF10B0312
:101E100020460122E5618DF80A80009500F02CF93A
:101E20000A20E561FEF772FB42208DF80A000DF1F1
:101E30000A010DF10B0320460122009500F00AF87B
:101E40009DF80B104FF4CA70122908BFC82003B0C8
:101E5000BDE8F0832DE9F04104461746A2880068EA
:101E6000069E0D46114600229846FEF78DFCA0699D
:101E700029463A464FF4FA63FFF7BAF9A069FFF72B
:101E800029F80128FAD1A069414632464FF4FA6395
:101E9000FFF7B6F8A069FFF71DF80128FAD120680E
:101EA000A1880122BDE8F041FEF76EBC2DE9F04F9C
:101EB00083B01646894604461AB148463146FEF7B5
:101EC00017FA01270DF10A010DF10B03204601223B
:101ED0008DF80A700097FFF7BDFF9DF80B00812574
:101EE00000F0F80001308DF80B000DF10A010DF142
:101EF0000B0320460122E7618DF80A50009700F09D
:101F0000BBF812208DF80A000DF10A010DF10B0348
:101F1000204601220097FFF79DFF9DF80B00400629
:101F200002D44FF000085FE092208DF80A00FF20F5
:101F30008DF80B000DF10A010DF10B032046012273
:101F4000009700F099F813208DF80A000DF10A01AE
:101F50000DF10B03204601220097FFF77BFF1020B5
:101F60009DF80B808DF80A000DF10A010DF10B03AD
:101F7000204601220097FFF76DFF9DF80B008D2191
:101F80008DF80A108DF80B000DF10A010DF10B030D
:101F900020460122009700F06FF8464538BFB04652
:101FA000B8F1000F4FF0000B1CD0A9F101074FF062
:101FB00001090DF10A050DF10B06C246204629461E
:101FC000012233468DF80AB0CDF80090FFF742FFAA
:101FD0009DF80B00BAF1010A07F8010FEED10127B5
:101FE000812501E04FF000080DF10A010DF10B030E
:101FF000204601228DF80A700097FFF72BFF9DF80D
:102000000B00052100F0F8000530E1618DF80B00B0
:102010000DF10A010DF10B03204601228DF80A5043
:10202000009700F029F8404603B0BDE8F08F0000AB
:10203000B0B582B0012501A90DF1050301220446C6
:102040008DF804500095FFF705FF9DF80500052168
:1020500000F0F8000530E16181218DF806108DF85F
:1020600007000DF106010DF107032046012200953E
:1020700000F002F802B0B0BD2DE9F0410446174669
:10208000A2880068069E0D46114600229846FEF77B
:102090007BFBA06929463A464FF4FA63FFF7A8F89C
:1020A000A069FEF717FF0128FAD1A0694146324620
:1020B0004FF4FA63FFF79CF8A069FEF70BFF0128C5
:1020C000FAD12068A1880122BDE8F041FEF75CBB8F
:1020D0002DE9F04784B041F21800C4F20200016813
:1020E00040F6004441F0100101600168C4F20104AF
:1020F00001F0100100910099016804F5806541F03C
:10210000200101600168002201F020010091009986
:1021100001684FF4005641F00401016001684FF07E
:10212000000A01F0040100910099016841F00801E2
:10213000016000684FF4005100F008000090009822
:102140002846FEF721FB2046032101224FF0030819
:102150004FF00109FEF718FB8DE840066E46022796
:10216000284631460397FEF701FA0020C1F211001C
:10217000CDE9010AA4F5806031460097FEF7F6F933
:10218000204631468DE800070397FEF7EFF9072058
:1021900000210022FEF780FB0720FEF769FB04B058
:1021A000BDE8F08780B540F2241043F20001C2F28E
:1021B0000000C4F201014FF48272002380E80E0097
:1021C00000F114014FF4007C4FF0100E81E808502C
:1021D0000A21C0E90333C0E90833C0E90A31FEF738
:1021E0007DFE002808BF80BDBDE88040FEF788B9AD
:1021F00080B540F27C1043F60001C2F20000C4F248
:10220000010100234FF00C0C4FF4E13280E80E0086
:10221000C0E90333C0E905C3C361FFF765FA0028CD
:1022200008BF80BDBDE88040FEF76AB9FEE7000048
:10223000FEE70000704700002DE9F04182B01E4625
:1022400090460D460446FEF7A5FA301A00EB080743
:10225000FEF7A0FA40F20801C2F200010968C1F3DA
:10226000CB317943019121688A682A40AA4227D15B
:10227000064618F101001FD0FEF78CFA801BB84209
:1022800022D2019801990028A1F101010191216850
:10229000896808BF074601EA0500A842ECD00FE0B4
:1022A00088682840A8420BD188682840A84207D1F6
:1022B00088682840A84203D188682840A842EFD007
:1022C000002002B0BDE8F081D4E900014268B1F518
:1022D000827F22F0E00242600AD1A168B1F5004F8E
:1022E00002D0B1F5806F03D1016821F04001016097
:1022F000A16AB1F5005F07D1016821F400510160C6
:10230000016841F400510160012084F8510000206F
:1023100084F85000032002B0BDE8F081704700004F
:10232000FEF73EBA70470000FEE70000B8B0FEF7C7
:1023300045FA00240120CDE90644CDE9044401908A
:1023400005904FF4E0104FF4803102250A9001A867
:10235000CDE90214CDE90851FEF7E2FB20B1EFF31D
:10236000108072B6FEE700BF0F20CDE933054FF4B1
:102370008060CDE9360433A802213594FEF7C8FA0F
:1023800020B1EFF3108072B6FEE700BFFFF7A0FEAA
:10239000FFF72EFFFFF706FF0DF10408404600F09F
:1023A0009BF840F270070DF1040EC2F200079EE8A0
:1023B00002503846DDF8109040F8081FDDE9051599
:1023C000DDE90742DDE90936C0E903910221C0E9F0
:1023D0000836C0E90554C2618181818240F224112E
:1023E000C2F2000181614FF4DC7140F600430162EA
:1023F00040F20741C4F20103818409210125A3F5BC
:102400008062C8F2FF2180E8085085808360026105
:1024100080F826508162FFF76BFBC82808BF3D702B
:1024200007F108052846FFF763FB064608F1080098
:10243000C021FDF77FFF47F25350C6F26330019091
:1024400047F26530C0F67320C82E029005D018A25E
:1024500001A8C8213346FDF7BBFE40F27C14C2F24E
:10246000000401A92046C822C823FFF7EDF9284639
:10247000FFF7DEFD40F2A405C2F200052846FFF793
:1024800021FB78604FF4FA70FEF740F820462946A9
:102490000C224FF4FA73FFF7D7F979682046C82267
:1024A000C823FFF7D1F96420FEF730F8E6E700BF54
:1024B0000A0D204C6F5261206661696C6564203A98
:1024C00028200A0D204572726F7220636F64653A8E
:1024D000202564200A0D000040F2B111016240F293
:1024E00007718184012180F826100821C6F2FF417E
:1024F0008162704700000000000000000102030438
:10250000060708090000000001020304010202039B
:102510000405060708090A0B0C0D0E0F1010000029
:1025200040250008000000201000000028010008DD
:102530005025000810000020B807000044010008E2
:1025400001000000100000000024F4000000000062
:04000005080000ED02
:00000001FF
