:020000040800F2
:100000001807002089010008AD140008A514000895
:10001000A914000891020008B517000800000000AC
:10002000000000000000000000000000B5140008FF
:10003000A102000800000000B1140008B914000873
:10004000A3010008A3010008A3010008A301000800
:10005000A3010008A3010008A3010008A3010008F0
:10006000A3010008A3010008A3010008A3010008E0
:10007000A3010008A3010008A301000895020008DD
:10008000A3010008A3010008A3010008A3010008C0
:10009000A3010008A3010008A3010008A3010008B0
:1000A000A3010008A3010008A3010008A3010008A0
:1000B000A3010008A3010008A3010008A301000890
:1000C000A3010008A3010008A3010008A301000880
:1000D000A3010008A3010008A3010008A301000870
:1000E000A3010008A3010008A301000800F002F822
:1000F00000F03AF80AA090E8000C82448344AAF188
:100100000107DA4501D100F02FF8AFF2090EBAE885
:100110000F0013F0010F18BFFB1A43F0010318473B
:10012000B4170000D4170000103A24BF78C878C173
:10013000FAD8520724BF30C830C144BF04680C60ED
:10014000704700000023002400250026103A28BF35
:1001500078C1FBD8520728BF30C148BF0B60704739
:100160001FB51FBD10B510BD00F058F81146FFF7C0
:10017000F7FF01F021FB00F076F803B4FFF7F2FF80
:1001800003BC00F07DF8000009488047094800479B
:10019000FEE7FEE7FEE7FEE7FEE7FEE7FEE7FEE737
:1001A000FEE7FEE704480549054A064B7047000094
:1001B000BD140008ED0000081801002018070020F9
:1001C00018030020180300204FF0000200B513466A
:1001D00094469646203922BFA0E80C50A0E80C5067
:1001E000B1F12001BFF4F7AF090728BFA0E80C5018
:1001F00048BF0CC05DF804EB890028BF40F8042B11
:1002000008BF704748BF20F8022B11F0804F18BF7D
:1002100000F8012B7047704770477047754600F033
:100220002BF8AE4605006946534620F00700854688
:1002300018B020B5FFF7B6FFBDE820404FF000062C
:100240004FF000074FF000084FF0000BAC46ACE851
:10025000C009ACE8C009ACE8C009ACE8C00921F0AD
:1002600007018D46704710B50446AFF30080204665
:10027000BDE81040FFF781BF004870472000002014
:1002800001491820ABBEFEE72600020070470000BF
:10029000FEE7000040F2CC00C2F2000000F008B817
:1002A00070470000EFF3108072B600BFFEE7000059
:1002B00010B5D0E90FCE0168DCF800300A6823FAE7
:1002C0000EF35C072AD512F0040427D00A689206C0
:1002D00003D40A6822F004020A602F22C4F2020248
:1002E000914240F20402C4F202025BDD3023C4F208
:1002F0000203994272D04423C4F20203994273D09C
:100300005823C4F20203994240F07A804FF48023CC
:100310001360C16A002940F098806FE09C0727D5E0
:1003200012F0020424D00A68920606D40A6822F069
:100330000A020A60012280F821202F22C4F2020260
:10034000914240F20402C4F202023BDD3023C4F2C7
:100350000203994260D04423C4F2020399425FD061
:100360005823C4F20203994260D14FF4003365E090
:100370001B0743D512F0080208BF10BD0A6822F01F
:100380000E020A60012101FA0EF2CCF8042081630A
:1003900080F82110016B0022002980F8202054D120
:1003A0002CE000BF0823C4F20203994222D01C2390
:1003B000C4F20203994223D140231360C16A002989
:1003C00043D11BE00823C4F2020399422CD01C2322
:1003D000C4F20203994229D120232FE04FF4806315
:1003E0001360C16A89BB09E04FF480431360C16A9E
:1003F00059BB03E004231360C16A31BB10BD00BFC9
:1004000002F168044FF08063A14208BF4FF48003FB
:100410001360C16AC9B9F1E74FF400730EE000BF81
:100420004FF400530AE000BF022307E002F1680422
:100430004FF00073A14208BF4FF400131360816AAC
:100440000022002980F82020D8D0BDE810400847BD
:10045000014600284FF0010008BF70472DE9F04326
:10046000D1F800C04FF6F873CBF6FD734CF6CD42D1
:100470006344CCF6CC42A3FB02236FF0030707EAE8
:1004800093030027C4F2020701F10C09C1E90F73BD
:100490000223D1E9012E99E87002D1F81C8081F87D
:1004A0002130DCF8003043F6F077BB431A4342EAD0
:1004B0000E0222432A43324342EA090242EA080278
:1004C000CCF8002000228A6381F8210081F82020E6
:1004D0000020BDE8F0437047F0B590F820C0BCF1B3
:1004E000010F32D04FF0010E80F820E090F821C0CB
:1004F000BCF1010F26D14FF0020C80F821C04FF063
:10050000000CC0F838C0D0E900C4C56AC66BDCF87E
:100510000070102C27F00107CCF80070006C0EFA68
:1005200000F070600846CCF8043004BF10460A465C
:10053000CCF80800CCF80C20DCF8000045B140F005
:100540000E000DE0002180F820100220F0BD00BF59
:1005500020F00400CCF80000DCF8000040F00A00B5
:10056000CCF80000DCF8000040F00100CCF80000FE
:100570000020F0BD2DE9F04F82B00E68002E00F093
:10058000038141F20042C4F20102042340F2004E12
:10059000904208BF03234FF6FF7CC4F2010E009384
:1005A00000240123C1F2100C4FF0000A4FF00009A3
:1005B00049E000BF012704F00C030F229A402BEA08
:1005C000020207FA03F34FEA9A051A4346F8252078
:1005D000D1F804B040F20C455FEACB22DEF80820E7
:1005E00054BF22EA080242EA0802C4F20105CEF82A
:1005F00008202A685FEA8B2354BF22EA080242EAF5
:1006000008022A605FEA8B33DEF8042054BF22EA36
:10061000080242EA08025FEACB33CEF80420DEF893
:1006200000204FF0010354BF22EA080242EA080208
:10063000CEF800200E680AF1010A36FA0AF204F137
:10064000040400F0A18003FA0AF816EA080FF1D0BA
:100650004E68664512DC122E56D8DFE806F0350BE0
:100660004549555555555555555555555555554D5E
:10067000510000BFD1F80C9046E000BF4FF6FF726A
:10068000C1F2210296420FDC0022C1F21102964211
:100690001AD00022C1F21202964215D00022C1F2F5
:1006A0002102964210D02FE00022C1F2220296428F
:1006B0000AD00022C1F23102964205D00022C1F2D6
:1006C0003202964220D100BF8A684AB1012A14BF83
:1006D000C0F81480C0F810804FF0080914E000BF83
:1006E0004FF0040910E000BFCA6802F108090BE0EE
:1006F0004FF0000908E000BFCA6802F1040903E0F6
:10070000CA6802F10C0900BF22460646BAF1080F7A
:1007100024BF203A043637680F25954027EA05059F
:1007200009FA02F22A433260CA79D2067FF582AF13
:1007300041F21803C4F202031A68AEF57E7642F065
:1007400001021A601A6802F001020192019A2AF06D
:10075000030256F802B040F60002C4F201029042D1
:1007600010D040F60042C4F2010290423FF422AFA2
:1007700041F20002C4F20102009F904208BF02272A
:1007800019E700BF002716E702B0BDE8F08F0000B0
:1007900040F21010C2F200000068704740F2000002
:1007A00040F21011C2F20000C2F2000100780A68A3
:1007B000104408607047000080B542F20000C4F2A7
:1007C0000200016841F010010160032000F08EF882
:1007D0000F2000F005F800F027F8002080BD000091
:1007E00070B540F20006C2F2000640F2080132780D
:1007F000C2F200014FF47A730968B3FBF2F20446C7
:10080000B1FBF2F1084600F063FB0F2C4FF001053D
:1008100008D838B94FF0FF3021460022002500F0FB
:1008200039F87460284670BD82B041F21800C4F2F5
:1008300002000168022241F001010160016801F03B
:10084000010101910199416841F080514160406886
:1008500000F08050009000980420C4F2010001686C
:1008600062F31A61016002B070470000002848BFBF
:100870007047C1B200F01F00012202FA00F04EF2F0
:100880000012CEF2000242EAD10121F00301086019
:100890007047000010B54EF60C5CCEF2000CDCF890
:1008A0000030C3F3022E8EF00704042C28BF04246A
:1008B000BEF103034FF0FF3E0EFA04F438BF0023ED
:1008C000A14399400EFA03F39A43114300F00F023B
:1008D00000F160430901043A03F5644362440028CF
:1008E00048BF02F10C03197010BD00004EF60C5108
:1008F000CEF200010A684FF6FF031A4060F30A22A5
:1009000042F0806040F0FD70086070472DE9F043D0
:1009100081B0002800F0858042F20008C4F202088D
:100920000446D8F800000D4600F0070088420CD2BB
:10093000D8F8000020F007002843C8F80000D8F8D5
:10094000000000F00700A8426BD1206841F20409C2
:100950008107C4F2020917D5410705D5D9F800105F
:1009600041F4E061C9F80010010705D5D9F800107D
:1009700041F46051C9F80010D9F80010A26821F0C4
:10098000F0011143C9F80010C00741D1D8F80000A8
:1009900000F00700A8420CD9D8F8000020F00700AA
:1009A0002843C8F80000D8F8000000F00700A8426B
:1009B00037D12068410707D5D9F80010E26821F443
:1009C000E0611143C9F80010000708D5D9F800000C
:1009D000216920F4605040EAC100C9F80000D9F84C
:1009E000002002F00C00082841F20020C0F27A003A
:1009F00050D141F6C403C2F38341C0F60003595CF1
:100A0000D2033BD440F60010C0F23D00484341E021
:100A1000606802280AD001282AD159F8041C8903E9
:100A200008D4012001B0BDE8F08300BF59F8041CD0
:100A30008901F6D5D9F8001021F003010843C9F85F
:100A40000000FFF7A5FE064641F28837D9F80000FE
:100A5000616800F00C00B0EB810F97D0FFF798FEB3
:100A6000801BB842F2D9032001B0BDE8F08300BF7B
:100A700059F8041C8907D4D5DCE700BFD9F8002059
:100A800041F6C203C2F34042C0F600039A5C4843F9
:100A9000B0FBF2F0D9F8001041F6AA02C1F303113D
:100AA000C0F60002515C40F2080220FA01F140F267
:100AB0000400C2F200000068C2F200021160FFF7F9
:100AC0008FFE002001B0BDE8F083000040F2080076
:100AD00041F20401C2F20000C4F202010068096898
:100AE00041F6BA02C1F30221C0F60002515CC840CF
:100AF0007047000040F2080041F20401C2F2000019
:100B0000C4F202010068096841F6BA02C1F3C221C9
:100B1000C0F60002515CC840704700002DE9F0416A
:100B200082B0002868D00446007841F20006C00771
:100B3000C4F2020625D0706800F00C0004281BD017
:100B4000706800F00C00082802D17068C00313D44C
:100B50006068002800F06881B0F5A02F00F07C816B
:100B6000B0F5803F00F07C81306820F48030306048
:100B7000306820F4802076E13068800301D5606819
:100B8000D0B32078800718D5706810F00C0F07D00C
:100B9000706800F00C0008286ED17068C0036BD438
:100BA0003068800702D52069012825D13068616945
:100BB00020F0F80040EAC1003060207800071FD420
:100BC0002078400732D4E56995B1706800F00C00D8
:100BD000082840F08F80012D0ED07068216A00F443
:100BE00080328A4208D1616A00F47010884203D1D1
:100BF000002002B0BDE8F081012002B0BDE8F08124
:100C0000A069002862D00020C4F242200121C0F86F
:100C10008014FFF7BDFD0546706A800700F18C80E7
:100C2000FFF7B6FD401B0228F6D92AE1F06910F063
:100C3000805808D1F06940F08050F061F06900F010
:100C400080500090009847F20007C4F2000738680F
:100C5000C00529D4386840F480703860FFF798FDEB
:100C6000054600BF3868C0051ED4FFF791FD401B44
:100C70006428F7D905E100BF2069002840F2000090
:100C8000C4F2422000F0828001210160FFF780FD64
:100C9000054600BF306880073FF588AFFFF778FD55
:100CA000401B0228F6D9ECE0E068002800F08080C4
:100CB000052800F09780012800F09880306A20F025
:100CC00001003062306A20F0040092E00020C4F29B
:100CD00042200021C0F88014FFF75AFD054600BFEE
:100CE000706A80077FF56CAFFFF752FD401B02284A
:100CF000F6D9C6E00027C4F2422700203866FFF785
:100D000047FD022D05460BD13068800140F1BE80C1
:100D1000FFF73EFD401B02284FF00300F4D968E7BF
:100D2000306880017FF564AFFFF732FD401B022879
:100D30004FF00300F4D95CE740F20800C2F2000073
:100D4000006844F6D351C1F26201A0FB0101480AD8
:100D5000019000BF00BF0198411E002801913FF49F
:100D60002FAF00BF0198411E002801913FF428AF2A
:100D700000BF0198411E002801913FF421AF00BF40
:100D80000198411E00280191E4D119E7002101607A
:100D9000FFF7FEFC054600BF306880077FF50DAF0A
:100DA000FFF7F6FC401B02284FF00300F4D920E7C0
:100DB000306A20F001003062306A20F004003062B6
:100DC000FFF7E6FC054641F2883700BF306A80072E
:100DD00020D5FFF7DDFC401BB8424FF00300F5D9EA
:100DE00007E700BF306A40F004003062306A40F02C
:100DF00001003062FFF7CCFC054641F2883700BFA6
:100E0000306A800706D4FFF7C3FC401BB842F7D90D
:100E100037E000BFB8F1000F7FF4D5AEF06920F0E5
:100E20008050F061CFE600BF306820F48030306041
:100E3000306820F480203060FFF7AAFC054600BF30
:100E4000306880037FF59DAEFFF7A2FC401B64284D
:100E50004FF00300F4D9CCE6306840F480203060D5
:100E6000306840F480303060FFF792FC054600BFE8
:100E7000306880033FF585AEFFF78AFC401B64288D
:100E8000F6D9032002B0BDE8F08100BF206AB0F5BA
:100E9000803F05D17168A26821F40031114371606F
:100EA0007168626A21F47411114308437060012073
:100EB0003866FFF76DFC0446306880013FF598AE58
:100EC000FFF766FC001B02284FF00300F4D990E600
:100ED000411E0020B0EB116F1CBF012070474EF285
:100EE0001002CEF2000251604EF62351CEF2000104
:100EF000F0230B700721906011607047704700006D
:100F000070470000002804BF0120704710B5044658
:100F100090F8410028B9002084F84000204600F0F5
:100F200063F8242084F841002068D4E90212C368E1
:100F300023F40053C360036923F440531A4302614E
:100F4000D4E904231143C268194341F20C639A4364
:100F50001143C1604169A26921F44071114343F614
:100F60000002C4F201029042416103D0FFF7AEFDDE
:100F700002E000BFFFF7BEFD6268192148439100FF
:100F8000B0FBF1F048F21F51C5F2EB11A0FB0123B9
:100F90005A094FF69C73C0F6FF7302FB030032231D
:100FA00003EB0010A0FB0101F02303EA51132068BA
:100FB00003EB0212C1F3431111448160016921F472
:100FC00090410161416921F02A014161C16841F408
:100FD0000051C16000202021606484F8411084F831
:100FE0004210606310BD00002DE9F04186B040F66C
:100FF00000050446C4F20105006805F540510027CC
:101000008842049702D006B0BDE8F08141F218068C
:10101000C4F2020630680DF1080840F480403060E8
:101020003068414600F4804001900198306840F0FB
:1010300004003060306800F00400019001984FF423
:101040000070029002200390032005902846FFF7CD
:1010500091FA4FF48060CDE9020728464146049793
:10106000FFF788FA40F2CC05A6F57C60C2F20005D5
:1010700080212022C5E900072846C5E90271C5E99B
:101080000477C5E90627FFF7E3F9002818BFFFF743
:1010900009F9E5636C6206B0BDE8F08170B582B015
:1010A000044690F8420020280AD113460A46002937
:1010B0004FF0010018BF002B06D102B070BD00BF79
:1010C000022002B070BD00BF002522202563A2626D
:1010D000A385656484F842002168E06B41F23D6CB1
:1010E00041F29D7E41F2C146C0F6000CC0F6000EF2
:1010F000C0F600060431C0E90ACEC0E90C65FFF76E
:10110000EBF9019520680168019140680190019810
:10111000206928B3206850E8030F216840F48070EC
:1011200041E80302E2B1206850E8030F216840F46F
:10113000807041E803029AB1206850E8030F2168EB
:1011400040F4807041E8030252B1206850E8030F78
:10115000216840F4807041E80302002ADAD100BF20
:10116000206850E8050F216840F0010041E80502C1
:10117000E2B1206850E8050F216840F0010041E825
:1011800005029AB1206850E8050F216840F001007F
:1011900041E8050252B1206850E8050F216840F08F
:1011A000010041E80502002ADAD100BF206850E8BA
:1011B000050F216840F0400041E80502DAB12068DF
:1011C00050E8050F216840F0400041E8050292B167
:1011D000206850E8050F216840F0400041E8050212
:1011E0004AB1206850E8050F216840F0400041E80E
:1011F0000502002ADAD1002002B070BD006843F673
:101200000001C4F20101884218BF704740F280001B
:10121000C2F2000040F20C010430C2F200010E22C2
:101220004FF47A7300F002B8704700002DE9F043E4
:1012300081B0044690F84100202840F0B1808846F3
:1012400000294FF0010000F0D6801646002A00F079
:10125000D2800020606421201D4684F84100FFF701
:1012600097FAA684E684A1680646B1F5805F03D1AB
:101270002069002800F0988047464FF00008E18C74
:101280002068002900F0968005F101090BE000BFFD
:1012900047B317F8011B4160E18C0139E184E18C0F
:1012A000002900F0878001680906F1D4B9F1000F28
:1012B0000AD0EDB1FFF76CFA801BA84218D820685D
:1012C00001680906F6D5E3E701680906E0D401687C
:1012D00009065CBF01685FEA0161D9D401680906AB
:1012E000F2D5D5E738F8021B00276FF35F21D2E76C
:1012F000206850E8030F216820F4D07041E8030211
:10130000BAB3206850E8030F216820F4D07041E898
:10131000030272B3206850E8030F216820F4D070F4
:1013200041E803022AB3206850E8030F216820F443
:10133000D07041E80302002ADAD11AE0206850E8B0
:10134000050F216820F0010041E80502DAB12068AC
:1013500050E8050F216820F0010041E8050292B134
:10136000206850E8050F216820F0010041E80502DF
:101370004AB1206850E8050F216820F0010041E8DB
:101380000502002ADAD1202084F8410084F84200C6
:10139000002084F84000032001B0BDE8F08300BFC6
:1013A000022001B0BDE8F0830027E18C206800290D
:1013B0007FF46AAF0168490619D4FDB1691C0DD1EB
:1013C0000168490613D4016849065CBF01685FEAF9
:1013D00041610CD401684906F2D508E0FFF7D8F95D
:1013E000801BA8420AD8206800684006F6D5202055
:1013F00084F84100002001B0BDE8F083206850E887
:10140000030F216820F4D07041E80302002A3ED087
:10141000206850E8030F216820F4D07041E80302EF
:10142000AAB3206850E8030F216820F4D07041E887
:10143000030262B3206850E8030F216820F4D070E3
:1014400041E80302002AD9D121E000BF206850E81A
:10145000050F216820F0010041E80502002A3FF451
:1014600092AF206850E8050F216820F0010041E8A4
:101470000502002A3FF487AF206850E8050F216875
:1014800020F0010041E80502002A3FF47CAF20680B
:1014900050E8050F216820F0010041E80502002A0C
:1014A000D4D170E7FEE70000FEE70000FEE7000091
:1014B0007047000070470000FFF770B970470000E8
:1014C000406A01684A6990F84130212B2DD112F011
:1014D00080022AD00021C184016851E8031F0268FC
:1014E00021F0C00142E80313DBB1016851E8031F9A
:1014F000026821F0C00142E8031393B1016851E88A
:10150000031F026821F0C00142E803134BB10168D8
:1015100051E8031F026821F0C00142E80313002BC9
:10152000DAD1202180F841100168496990F8422001
:10153000222A40F07D8011F0400179D00021C18540
:10154000016851E8031F026821F4907142E8031317
:10155000BBB3016851E8031F026821F4907142E8AF
:10156000031373B3016851E8031F026821F49071FB
:1015700042E803132BB3016851E8031F026821F40A
:10158000907142E80313002BDAD11AE0016851E8A8
:10159000051F026821F0010142E80513DBB1016873
:1015A00051E8051F026821F0010142E8051393B1DB
:1015B000016851E8051F026821F0010142E80513A6
:1015C0004BB1016851E8051F026821F0010142E8B2
:1015D0000513002BDAD1016B012924D1016851E8F0
:1015E000031F026821F0100142E80313DBB1016818
:1015F00051E8031F026821F0100142E8031393B180
:10160000016851E8031F026821F0100142E803134A
:101610004BB1016851E8031F026821F0100142E854
:101620000313002BDAD1202180F84210002101633E
:10163000416C41F010014164FFF762BC0168406AEF
:101640000968890600F19F800021C185016851E881
:10165000031F026821F4807142E80313E3B10168BB
:1016600051E8031F026821F4807142E803139BB123
:10167000016851E8031F026821F4807142E80313F6
:1016800053B1016851E8031F026821F4807142E8F8
:101690000313002BDAD100BF016851E8051F02686F
:1016A00021F0010142E80513BBB3016851E8051FB1
:1016B000026821F0010142E8051373B3016851E8A3
:1016C000051F026821F0010142E805132BB30168F0
:1016D00051E8051F026821F0010142E80513002BC3
:1016E000DAD11AE0016851E8051F026821F04001D3
:1016F00042E80513DBB1016851E8051F026821F0DB
:10170000400142E8051393B1016851E8051F0268E2
:1017100021F0400142E805134BB1016851E8051F73
:10172000026821F0400142E80513002BDAD12021A4
:1017300080F84210016B012925D100BF016851E8F2
:10174000031F026821F0100142E80313DBB10168B6
:1017500051E8031F026821F0100142E8031393B11E
:10176000016851E8031F026821F0100142E80313E9
:101770004BB1016851E8031F026821F0100142E8F3
:101780000313002BDAD100214163016B012918BF3B
:10179000FFF734BD818DFFF7B1BB0000406A012126
:1017A0004163016B012918BFFFF73EBD818D4908D8
:1017B000FFF7A4BBFEE7000090B0FEF7FDFF06AC0C
:1017C000201D2421FEF700FD0220069001200A9032
:1017D00010200B90002520460D95FFF79FF928B1AA
:1017E000EFF3108072B600BFFEE700BF0F20CDE917
:1017F000010501A80021CDE903550595FFF786F8FD
:1018000020B1EFF3108072B6FEE700BF41F218007E
:10181000C4F202000168002241F020010160016869
:10182000002501F0200106910699016841F00401AC
:101830000160016801F004010691069950F8041C4A
:1018400041F0010140F8041C50F8040C002100F0A4
:101850000100069006980F20FFF71CF80F20FFF7F5
:1018600005F840F28004C2F2000443F60001C4F21D
:101870000101204640F8041F4FF4E1310C22C0E979
:101880000115C0E90355C0E90525C561FFF73AFB1D
:1018900020B1EFF3108072B6FEE700BF201D214695
:1018A0000422FFF7FBFB00BFFEE700000000000082
:1018B00000000102030406070809000000000102FD
:1018C0000304010202030405060708090A0B0C0DB4
:1018D0000E0F1010F8180008000000202000000073
:1018E000280100081819000820000020F806000050
:1018F000440100080000000001000000100000008A
:101900000024F40048656C6C6F20576F726C642182
:081910000A00000000000000C5
:04000005080000ED02
:00000001FF
